                     Z0019677CRMPDF01000005                                                                                                                                       000000000000000                                             000000000000000STANDARDDSTANDARDC                                                                                                                                                                                SS                                                                                                                                                                                 BN
00133                             SARANDREA MARINA                            SC.UN INT.3                                 VIA DAVIDE CALANDRA 31                      00133 ROMA RM                                                                           160010000000111163420000000000000000                                                                    
00132                             GIARE' DILETTA                              INT.5                                       VIA LUIGI GASTINELLI 220                    00132 ROMA RM                                                                           160010000000111164430000000000000000                                                                    
00133                             FEDELI LUCIA                                SC.C INT.7                                  VIA DELL'ARCHEOLOGIA 192                    00133 ROMA RM                                                                           160010000000111165440000000000000000                                                                    
00133                             BUSCEMI MARCO                               PAL.6 SC.A INT.16                           VIA BATTISTA PANZERA 2                      00133 ROMA RM                                                                           160010000000111166450000000000000000                                                                    
00169                             VISCARDI DEBORAH                            INT.2                                       VIA ETTORE ARRIGONI DEGLI ODDI 6            00169 ROMA RM                                                                           160010000000111167460000000000000000                                                                    
